{
  "_format": "hh-sol-artifact-1",
  "contractName": "Upload",
  "sourceName": "contracts/Upload.sol",
  "abi": [
    {
      "inputs": [
        {
          "internalType": "address",
          "name": "_user",
          "type": "address"
        },
        {
          "internalType": "string",
          "name": "url",
          "type": "string"
        }
      ],
      "name": "add",
      "outputs": [],
      "stateMutability": "nonpayable",
      "type": "function"
    },
    {
      "inputs": [
        {
          "internalType": "address",
          "name": "user",
          "type": "address"
        }
      ],
      "name": "allow",
      "outputs": [],
      "stateMutability": "nonpayable",
      "type": "function"
    },
    {
      "inputs": [
        {
          "internalType": "address",
          "name": "user",
          "type": "address"
        }
      ],
      "name": "disallow",
      "outputs": [],
      "stateMutability": "nonpayable",
      "type": "function"
    },
    {
      "inputs": [
        {
          "internalType": "address",
          "name": "_user",
          "type": "address"
        }
      ],
      "name": "display",
      "outputs": [
        {
          "internalType": "string[]",
          "name": "",
          "type": "string[]"
        }
      ],
      "stateMutability": "view",
      "type": "function"
    },
    {
      "inputs": [],
      "name": "shareAccess",
      "outputs": [
        {
          "components": [
            {
              "internalType": "address",
              "name": "user",
              "type": "address"
            },
            {
              "internalType": "bool",
              "name": "access",
              "type": "bool"
            }
          ],
          "internalType": "struct Upload.Access[]",
          "name": "",
          "type": "tuple[]"
        }
      ],
      "stateMutability": "view",
      "type": "function"
    }
  ],
  "bytecode": "0x608060405234801561001057600080fd5b50610902806100206000396000f3fe608060405234801561001057600080fd5b50600436106100575760003560e01c806336d6da551461005c578063a9ed9cb814610071578063bc8bef8114610084578063eb39113f146100a2578063ff9913e8146100c2575b600080fd5b61006f61006a3660046106cf565b6100d5565b005b61006f61007f3660046106ae565b61010c565b61008c61026e565b60405161009991906107e4565b60405180910390f35b6100b56100b03660046106ae565b6102f1565b604051610099919061074d565b61006f6100d03660046106ae565b61043b565b6001600160a01b038316600090815260208181526040822080546001810182559083529120610106910183836105fe565b50505050565b3360008181526001602081815260408084206001600160a01b03878116808752918452828620805460ff191690559585526002835281852082518084019093529082528183018581528154948501825590855291842090519201805491516001600160a01b0319909216929094169190911760ff60a01b1916600160a01b91151591909102179091555b3360009081526002602052604090205481101561026a5733600090815260026020526040902080546001600160a01b0384169190839081106101e857634e487b7160e01b600052603260045260246000fd5b6000918252602090912001546001600160a01b031614156102585733600090815260026020526040812080548390811061023257634e487b7160e01b600052603260045260246000fd5b60009182526020909120018054911515600160a01b0260ff60a01b199092169190911790555b80610262816108a5565b915050610196565b5050565b336000908152600260209081526040808320805482518185028101850190935280835260609492939192909184015b828210156102e857600084815260209081902060408051808201909152908401546001600160a01b0381168252600160a01b900460ff1615158183015282526001909201910161029d565b50505050905090565b60606001600160a01b03821633148061032d57506001600160a01b038216600090815260016020908152604080832033845290915290205460ff165b6103525760405162461bcd60e51b81526004016103499061083e565b60405180910390fd5b6001600160a01b03821660009081526020818152604080832080548251818502810185019093528083529193909284015b8282101561042f5783829060005260206000200180546103a29061086a565b80601f01602080910402602001604051908101604052809291908181526020018280546103ce9061086a565b801561041b5780601f106103f05761010080835404028352916020019161041b565b820191906000526020600020905b8154815290600101906020018083116103fe57829003601f168201915b505050505081526020019060010190610383565b5050505090505b919050565b3360008181526001602081815260408084206001600160a01b038716808652908352818520805460ff191685179055948452600382528084209484529390529190205460ff161515141561056a5760005b336000908152600260205260409020548110156105645733600090815260026020526040902080546001600160a01b0384169190839081106104de57634e487b7160e01b600052603260045260246000fd5b6000918252602090912001546001600160a01b03161415610552573360009081526002602052604090208054600191908390811061052c57634e487b7160e01b600052603260045260246000fd5b60009182526020909120018054911515600160a01b0260ff60a01b199092169190911790555b8061055c816108a5565b91505061048c565b506105fb565b336000818152600260209081526040808320815180830183526001600160a01b03878116808352600183870181815285548083018755958952878920945194909501805495511515600160a01b0260ff60a01b19959094166001600160a01b0319909616959095179390931691909117909255948452600383528184209084529091529020805460ff191690911790555b50565b82805461060a9061086a565b90600052602060002090601f01602090048101928261062c5760008555610672565b82601f106106455782800160ff19823516178555610672565b82800160010185558215610672579182015b82811115610672578235825591602001919060010190610657565b5061067e929150610682565b5090565b5b8082111561067e5760008155600101610683565b80356001600160a01b038116811461043657600080fd5b6000602082840312156106bf578081fd5b6106c882610697565b9392505050565b6000806000604084860312156106e3578182fd5b6106ec84610697565b9250602084013567ffffffffffffffff80821115610708578384fd5b818601915086601f83011261071b578384fd5b813581811115610729578485fd5b87602082850101111561073a578485fd5b6020830194508093505050509250925092565b6000602080830181845280855180835260408601915060408482028701019250838701855b828110156107d757878503603f1901845281518051808752885b818110156107a7578281018901518882018a0152880161078c565b818111156107b7578989838a0101525b50601f01601f191695909501860194509285019290850190600101610772565b5092979650505050505050565b602080825282518282018190526000919060409081850190868401855b8281101561083157815180516001600160a01b031685528601511515868501529284019290850190600101610801565b5091979650505050505050565b60208082526012908201527120494f5420686173206e6f2061636365737360701b604082015260600190565b60028104600182168061087e57607f821691505b6020821081141561089f57634e487b7160e01b600052602260045260246000fd5b50919050565b60006000198214156108c557634e487b7160e01b81526011600452602481fd5b506001019056fea2646970667358221220a4fa18a279a55b12817ce5ce1b35870ac4f8d98afe2c71372604679c3c04dbce64736f6c63430008000033",
  "linkReferences": {},
  "deployedLinkReferences": {}
}